{
  "_format": "hh-sol-artifact-1",
  "contractName": "Roulette",
  "sourceName": "contracts/Casino.sol",
  "abi": [
    {
      "inputs": [],
      "stateMutability": "nonpayable",
      "type": "constructor"
    },
    {
      "anonymous": false,
      "inputs": [
        {
          "indexed": true,
          "internalType": "address",
          "name": "previousOwner",
          "type": "address"
        },
        {
          "indexed": true,
          "internalType": "address",
          "name": "newOwner",
          "type": "address"
        }
      ],
      "name": "OwnershipTransferred",
      "type": "event"
    },
    {
      "anonymous": false,
      "inputs": [
        {
          "indexed": false,
          "internalType": "uint256",
          "name": "NumberWin",
          "type": "uint256"
        },
        {
          "indexed": false,
          "internalType": "bool",
          "name": "result",
          "type": "bool"
        },
        {
          "indexed": false,
          "internalType": "uint256",
          "name": "tokensEarned",
          "type": "uint256"
        }
      ],
      "name": "RouletteGame",
      "type": "event"
    },
    {
      "inputs": [],
      "name": "balanceEthersSC",
      "outputs": [
        {
          "internalType": "uint256",
          "name": "",
          "type": "uint256"
        }
      ],
      "stateMutability": "view",
      "type": "function"
    },
    {
      "inputs": [
        {
          "internalType": "uint256",
          "name": "_numTokens",
          "type": "uint256"
        }
      ],
      "name": "compraTokens",
      "outputs": [],
      "stateMutability": "payable",
      "type": "function"
    },
    {
      "inputs": [
        {
          "internalType": "uint256",
          "name": "_numTokens",
          "type": "uint256"
        }
      ],
      "name": "devolverTokens",
      "outputs": [],
      "stateMutability": "payable",
      "type": "function"
    },
    {
      "inputs": [],
      "name": "getAdress",
      "outputs": [
        {
          "internalType": "address",
          "name": "",
          "type": "address"
        }
      ],
      "stateMutability": "view",
      "type": "function"
    },
    {
      "inputs": [
        {
          "internalType": "uint256",
          "name": "_start",
          "type": "uint256"
        },
        {
          "internalType": "uint256",
          "name": "_end",
          "type": "uint256"
        },
        {
          "internalType": "uint256",
          "name": "_tokensBet",
          "type": "uint256"
        }
      ],
      "name": "jugarRuleta",
      "outputs": [],
      "stateMutability": "nonpayable",
      "type": "function"
    },
    {
      "inputs": [],
      "name": "owner",
      "outputs": [
        {
          "internalType": "address",
          "name": "",
          "type": "address"
        }
      ],
      "stateMutability": "view",
      "type": "function"
    },
    {
      "inputs": [
        {
          "internalType": "uint256",
          "name": "_numTokens",
          "type": "uint256"
        }
      ],
      "name": "precioTokens",
      "outputs": [
        {
          "internalType": "uint256",
          "name": "",
          "type": "uint256"
        }
      ],
      "stateMutability": "pure",
      "type": "function"
    },
    {
      "inputs": [],
      "name": "renounceOwnership",
      "outputs": [],
      "stateMutability": "nonpayable",
      "type": "function"
    },
    {
      "inputs": [
        {
          "internalType": "uint256",
          "name": "_numEther",
          "type": "uint256"
        }
      ],
      "name": "retirarEth",
      "outputs": [],
      "stateMutability": "payable",
      "type": "function"
    },
    {
      "inputs": [],
      "name": "tokenAddress",
      "outputs": [
        {
          "internalType": "address",
          "name": "",
          "type": "address"
        }
      ],
      "stateMutability": "view",
      "type": "function"
    },
    {
      "inputs": [
        {
          "internalType": "address",
          "name": "_of",
          "type": "address"
        }
      ],
      "name": "tokenBalance",
      "outputs": [
        {
          "internalType": "uint256",
          "name": "",
          "type": "uint256"
        }
      ],
      "stateMutability": "view",
      "type": "function"
    },
    {
      "inputs": [
        {
          "internalType": "address",
          "name": "newOwner",
          "type": "address"
        }
      ],
      "name": "transferOwnership",
      "outputs": [],
      "stateMutability": "nonpayable",
      "type": "function"
    },
    {
      "inputs": [
        {
          "internalType": "address",
          "name": "_propietario",
          "type": "address"
        }
      ],
      "name": "tuHistorial",
      "outputs": [
        {
          "components": [
            {
              "internalType": "uint256",
              "name": "tokensBet",
              "type": "uint256"
            },
            {
              "internalType": "uint256",
              "name": "tokensEarned",
              "type": "uint256"
            },
            {
              "internalType": "string",
              "name": "game",
              "type": "string"
            }
          ],
          "internalType": "struct Roulette.Bet[]",
          "name": "",
          "type": "tuple[]"
        }
      ],
      "stateMutability": "view",
      "type": "function"
    },
    {
      "inputs": [],
      "name": "withdrawAllETH",
      "outputs": [],
      "stateMutability": "nonpayable",
      "type": "function"
    }
  ],
  "bytecode": "0x60806040523480156200001157600080fd5b506200001d336200011b565b6040516200002b906200016b565b6040808252600590820181905264434849505360d81b606083015260806020830181905282015264636869707360d81b60a082015260c001604051809103906000f08015801562000080573d6000803e3d6000fd5b50600180546001600160a01b03199081166001600160a01b0393909316928317909155600280549091168217905560405163140e25ad60e31b81526305f5e100600482015263a0712d68906024016020604051808303816000875af1158015620000ee573d6000803e3d6000fd5b505050506040513d601f19601f8201168201806040525081019062000114919062000179565b50620001a4565b600080546001600160a01b038381166001600160a01b0319831681178455604051919092169283917f8be0079c531659141344cd1fd0a4f28419497f9722a3daafe3b4186f6b6457e09190a35050565b610a0a806200145283390190565b6000602082840312156200018c57600080fd5b815180151581146200019d57600080fd5b9392505050565b61129e80620001b46000396000f3fe6080604052600436106100dd5760003560e01c806390386bbf1161007f578063c29dd7c911610059578063c29dd7c91461020c578063df5409671461021f578063eedc966a1461024c578063f2fde38b1461026c57600080fd5b806390386bbf146101c25780639d76ea58146101d7578063b934c384146101f757600080fd5b80635f375c6c116100bb5780635f375c6c1461012a5780636b37d3621461015d578063715018a61461018f5780638da5cb5b146101a457600080fd5b806321a10444146100e25780632e95161c146101045780633897b0bc14610117575b600080fd5b3480156100ee57600080fd5b506101026100fd366004610f24565b61028c565b005b610102610112366004610f50565b610609565b610102610125366004610f50565b6107f8565b34801561013657600080fd5b5061014a610145366004610f50565b61090a565b6040519081526020015b60405180910390f35b34801561016957600080fd5b506001546001600160a01b03165b6040516001600160a01b039091168152602001610154565b34801561019b57600080fd5b50610102610923565b3480156101b057600080fd5b506000546001600160a01b0316610177565b3480156101ce57600080fd5b50610102610937565b3480156101e357600080fd5b50600254610177906001600160a01b031681565b34801561020357600080fd5b5061014a61098d565b61010261021a366004610f50565b6109a6565b34801561022b57600080fd5b5061023f61023a366004610f69565b610bd2565b6040516101549190610f99565b34801561025857600080fd5b5061014a610267366004610f69565b610ced565b34801561027857600080fd5b50610102610287366004610f69565b610d5c565b6001546040516370a0823160e01b81523360048201526001600160a01b03909116906370a0823190602401602060405180830381865afa1580156102d4573d6000803e3d6000fd5b505050506040513d601f19601f820116820180604052508101906102f89190611050565b81111561030457600080fd5b6000811161031157600080fd5b6000600e4260405160200161032891815260200190565b6040516020818303038152906040528051906020012060001c61034b919061107f565b6001546040516317d5759960e31b81523360048201523060248201526044810185905291925060009182916001600160a01b03169063beabacc8906064016020604051808303816000875af11580156103a8573d6000803e3d6000fd5b505050506040513d601f19601f820116820180604052508101906103cc9190611093565b508483111580156103dd5750858310155b1561057e576001905082600003610400576103f984600e6110cb565b915061040e565b61040b8460026110cb565b91505b6001546040516370a0823160e01b815230600482015283916001600160a01b0316906370a0823190602401602060405180830381865afa158015610456573d6000803e3d6000fd5b505050506040513d601f19601f8201168201806040525081019061047a9190611050565b1015610501576001546001600160a01b031663a0712d6861049e84620186a06110cb565b6040518263ffffffff1660e01b81526004016104bc91815260200190565b6020604051808303816000875af11580156104db573d6000803e3d6000fd5b505050506040513d601f19601f820116820180604052508101906104ff9190611093565b505b6001546040516317d5759960e31b8152306004820152336024820152604481018490526001600160a01b039091169063beabacc8906064016020604051808303816000875af1158015610558573d6000803e3d6000fd5b505050506040513d601f19601f8201168201806040525081019061057c9190611093565b505b6105bf6040518060400160405280600781526020017f526f756c65746500000000000000000000000000000000000000000000000000815250858433610dec565b6040805184815282151560208201529081018390527fd25d6b7f2fbc40564b21f40e1d506ff3d5276071da39d3def6b88f6ee8a396599060600160405180910390a1505050505050565b600081116106775760405162461bcd60e51b815260206004820152603060248201527f4e6563657369746173206465766f6c76657220756e206e756d65726f2064652060448201526f0746f6b656e73206d61796f72206120360841b60648201526084015b60405180910390fd5b6001546040516370a0823160e01b81523360048201526001600160a01b03909116906370a0823190602401602060405180830381865afa1580156106bf573d6000803e3d6000fd5b505050506040513d601f19601f820116820180604052508101906106e39190611050565b8111156107435760405162461bcd60e51b815260206004820152602860248201527f4e6f207469656e6573206c6f7320746f6b656e732071756520646573656173206044820152673232bb37b63b32b960c11b606482015260840161066e565b6001546040516317d5759960e31b8152336004820152306024820152604481018390526001600160a01b039091169063beabacc8906064016020604051808303816000875af115801561079a573d6000803e3d6000fd5b505050506040513d601f19601f820116820180604052508101906107be9190611093565b50336108fc6107cc8361090a565b6040518115909202916000818181858888f193505050501580156107f4573d6000803e3d6000fd5b5050565b610800610e62565b600081116108695760405162461bcd60e51b815260206004820152603060248201527f4e6563657369746173206465766f6c76657220756e206e756d65726f2064652060448201526f0746f6b656e73206d61796f72206120360841b606482015260840161066e565b61087161098d565b8111156108d15760405162461bcd60e51b815260206004820152602860248201527f4e6f207469656e6573206c6f7320746f6b656e732071756520646573656173206044820152673232bb37b63b32b960c11b606482015260840161066e565b600080546040516001600160a01b039091169183156108fc02918491818181858888f193505050501580156107f4573d6000803e3d6000fd5b600061091d8266038d7ea4c680006110cb565b92915050565b61092b610e62565b6109356000610ebc565b565b61093f610e62565b47806108d15760405162461bcd60e51b815260206004820152601d60248201527f436f6e747261637420686173206e6f2045746865722062616c616e6365000000604482015260640161066e565b60006109a1670de0b6b3a7640000476110e2565b905090565b6109af8161090a565b341015610a245760405162461bcd60e51b815260206004820152602960248201527f436f6d707261206d656e6f7320746f6b656e73206f207061676120636f6e206d60448201527f6173206574686572730000000000000000000000000000000000000000000000606482015260840161066e565b6001546040516370a0823160e01b815230600482015282916001600160a01b0316906370a0823190602401602060405180830381865afa158015610a6c573d6000803e3d6000fd5b505050506040513d601f19601f82011682018060405250810190610a909190611050565b1015610b17576001546001600160a01b031663a0712d68610ab483620186a06110cb565b6040518263ffffffff1660e01b8152600401610ad291815260200190565b6020604051808303816000875af1158015610af1573d6000803e3d6000fd5b505050506040513d601f19601f82011682018060405250810190610b159190611093565b505b336108fc610b248361090a565b610b2e90346110f6565b6040518115909202916000818181858888f19350505050158015610b56573d6000803e3d6000fd5b506001546040516317d5759960e31b8152306004820152336024820152604481018390526001600160a01b039091169063beabacc8906064016020604051808303816000875af1158015610bae573d6000803e3d6000fd5b505050506040513d601f19601f820116820180604052508101906107f49190611093565b6001600160a01b0381166000908152600360209081526040808320805482518185028101850190935280835260609492939192909184015b82821015610ce257838290600052602060002090600302016040518060600160405290816000820154815260200160018201548152602001600282018054610c5190611109565b80601f0160208091040260200160405190810160405280929190818152602001828054610c7d90611109565b8015610cca5780601f10610c9f57610100808354040283529160200191610cca565b820191906000526020600020905b815481529060010190602001808311610cad57829003601f168201915b50505050508152505081526020019060010190610c0a565b505050509050919050565b6001546040516370a0823160e01b81526001600160a01b03838116600483015260009216906370a0823190602401602060405180830381865afa158015610d38573d6000803e3d6000fd5b505050506040513d601f19601f8201168201806040525081019061091d9190611050565b610d64610e62565b6001600160a01b038116610de05760405162461bcd60e51b815260206004820152602660248201527f4f776e61626c653a206e6577206f776e657220697320746865207a65726f206160448201527f6464726573730000000000000000000000000000000000000000000000000000606482015260840161066e565b610de981610ebc565b50565b6040805160608101825284815260208082018581528284018881526001600160a01b03861660009081526003808552958120805460018181018355918352949091208551949096029095019283559051938201939093559151909182916002820190610e5890826111a8565b5050505050505050565b6000546001600160a01b031633146109355760405162461bcd60e51b815260206004820181905260248201527f4f776e61626c653a2063616c6c6572206973206e6f7420746865206f776e6572604482015260640161066e565b600080546001600160a01b038381167fffffffffffffffffffffffff0000000000000000000000000000000000000000831681178455604051919092169283917f8be0079c531659141344cd1fd0a4f28419497f9722a3daafe3b4186f6b6457e09190a35050565b600080600060608486031215610f3957600080fd5b505081359360208301359350604090920135919050565b600060208284031215610f6257600080fd5b5035919050565b600060208284031215610f7b57600080fd5b81356001600160a01b0381168114610f9257600080fd5b9392505050565b60006020808301818452808551808352604092508286019150828160051b8701018488016000805b8481101561104157898403603f1901865282518051855288810151898601528701516060888601819052815190860181905283905b80821015611014578282018b015187830160800152908a0190610ff6565b8681016080908101869052988b0198601f909101601f191690960190950194505091870191600101610fc1565b50919998505050505050505050565b60006020828403121561106257600080fd5b5051919050565b634e487b7160e01b600052601260045260246000fd5b60008261108e5761108e611069565b500690565b6000602082840312156110a557600080fd5b81518015158114610f9257600080fd5b634e487b7160e01b600052601160045260246000fd5b808202811582820484141761091d5761091d6110b5565b6000826110f1576110f1611069565b500490565b8181038181111561091d5761091d6110b5565b600181811c9082168061111d57607f821691505b60208210810361113d57634e487b7160e01b600052602260045260246000fd5b50919050565b634e487b7160e01b600052604160045260246000fd5b601f8211156111a357600081815260208120601f850160051c810160208610156111805750805b601f850160051c820191505b8181101561119f5782815560010161118c565b5050505b505050565b815167ffffffffffffffff8111156111c2576111c2611143565b6111d6816111d08454611109565b84611159565b602080601f83116001811461120b57600084156111f35750858301515b600019600386901b1c1916600185901b17855561119f565b600085815260208120601f198616915b8281101561123a5788860151825594840194600190910190840161121b565b50858210156112585787850151600019600388901b60f8161c191681555b5050505050600190811b0190555056fea2646970667358221220a465af4454bc036526106776213e504950e5b869960009f66293a315dcf6562364736f6c6343000811003360806040523480156200001157600080fd5b5060405162000a0a38038062000a0a833981016040819052620000349162000131565b60026200004283826200022a565b5060036200005182826200022a565b5050600480546001600160a01b0319163317905550620002f6565b634e487b7160e01b600052604160045260246000fd5b600082601f8301126200009457600080fd5b81516001600160401b0380821115620000b157620000b16200006c565b604051601f8301601f19908116603f01168101908282118183101715620000dc57620000dc6200006c565b81604052838152602092508683858801011115620000f957600080fd5b600091505b838210156200011d5785820183015181830184015290820190620000fe565b600093810190920192909252949350505050565b600080604083850312156200014557600080fd5b82516001600160401b03808211156200015d57600080fd5b6200016b8683870162000082565b935060208501519150808211156200018257600080fd5b50620001918582860162000082565b9150509250929050565b600181811c90821680620001b057607f821691505b602082108103620001d157634e487b7160e01b600052602260045260246000fd5b50919050565b601f8211156200022557600081815260208120601f850160051c81016020861015620002005750805b601f850160051c820191505b8181101562000221578281556001016200020c565b5050505b505050565b81516001600160401b038111156200024657620002466200006c565b6200025e816200025784546200019b565b84620001d7565b602080601f8311600181146200029657600084156200027d5750858301515b600019600386901b1c1916600185901b17855562000221565b600085815260208120601f198616915b82811015620002c757888601518255948401946001909101908401620002a6565b5085821015620002e65787850151600019600388901b60f8161c191681555b5050505050600190811b01905550565b61070480620003066000396000f3fe608060405234801561001057600080fd5b50600436106100885760003560e01c80638da5cb5b1161005b5780638da5cb5b146100f557806395d89b4114610120578063a0712d6814610128578063beabacc81461014b57600080fd5b806306fdde031461008d57806318160ddd146100ab578063313ce567146100bd57806370a08231146100cc575b600080fd5b61009561015e565b6040516100a29190610592565b60405180910390f35b6001545b6040519081526020016100a2565b604051600081526020016100a2565b6100af6100da3660046105fc565b6001600160a01b031660009081526020819052604090205490565b600454610108906001600160a01b031681565b6040516001600160a01b0390911681526020016100a2565b6100956101f0565b61013b61013636600461061e565b6101ff565b60405190151581526020016100a2565b61013b610159366004610637565b61029e565b60606002805461016d90610673565b80601f016020809104026020016040519081016040528092919081815260200182805461019990610673565b80156101e65780601f106101bb576101008083540402835291602001916101e6565b820191906000526020600020905b8154815290600101906020018083116101c957829003601f168201915b5050505050905090565b60606003805461016d90610673565b60045460009033906001600160a01b031681146102895760405162461bcd60e51b815260206004820152602e60248201527f4e6f207469656e6573207065726d69736f73207061726120656a65637574617260448201527f20657374612066756e63696f6e2e00000000000000000000000000000000000060648201526084015b60405180910390fd5b61029333846102b5565b600191505b50919050565b60006102ab848484610394565b5060019392505050565b6001600160a01b03821661030b5760405162461bcd60e51b815260206004820152601f60248201527f45524332303a206d696e7420746f20746865207a65726f2061646472657373006044820152606401610280565b806001600082825461031d91906106a7565b90915550506001600160a01b0382166000908152602081905260408120805483929061034a9084906106a7565b90915550506040518181526001600160a01b038316906000907fddf252ad1be2c89b69c2b068fc378daa952ba7f163c4a11628f55a4df523b3ef9060200160405180910390a35050565b6001600160a01b0383166104105760405162461bcd60e51b815260206004820152602560248201527f45524332303a207472616e736665722066726f6d20746865207a65726f20616460448201527f64726573730000000000000000000000000000000000000000000000000000006064820152608401610280565b6001600160a01b0382166104725760405162461bcd60e51b815260206004820152602360248201527f45524332303a207472616e7366657220746f20746865207a65726f206164647260448201526265737360e81b6064820152608401610280565b6001600160a01b038316600090815260208190526040902054818110156105015760405162461bcd60e51b815260206004820152602660248201527f45524332303a207472616e7366657220616d6f756e742065786365656473206260448201527f616c616e636500000000000000000000000000000000000000000000000000006064820152608401610280565b6001600160a01b038085166000908152602081905260408082208585039055918516815290812080548492906105389084906106a7565b92505081905550826001600160a01b0316846001600160a01b03167fddf252ad1be2c89b69c2b068fc378daa952ba7f163c4a11628f55a4df523b3ef8460405161058491815260200190565b60405180910390a350505050565b600060208083528351808285015260005b818110156105bf578581018301518582016040015282016105a3565b506000604082860101526040601f19601f8301168501019250505092915050565b80356001600160a01b03811681146105f757600080fd5b919050565b60006020828403121561060e57600080fd5b610617826105e0565b9392505050565b60006020828403121561063057600080fd5b5035919050565b60008060006060848603121561064c57600080fd5b610655846105e0565b9250610663602085016105e0565b9150604084013590509250925092565b600181811c9082168061068757607f821691505b60208210810361029857634e487b7160e01b600052602260045260246000fd5b808201808211156106c857634e487b7160e01b600052601160045260246000fd5b9291505056fea2646970667358221220bf73b3d1cbfd007350fc2ef2d4a8c88b708acc7cfc3929039e7e2d0e5358455364736f6c63430008110033",
  "linkReferences": {},
  "deployedLinkReferences": {}
}